{
  "contractName": "DominionDAO",
  "abi": [
    {
      "anonymous": false,
      "inputs": [
        {
          "indexed": true,
          "internalType": "address",
          "name": "initiator",
          "type": "address"
        },
        {
          "indexed": false,
          "internalType": "bytes32",
          "name": "role",
          "type": "bytes32"
        },
        {
          "indexed": false,
          "internalType": "string",
          "name": "message",
          "type": "string"
        },
        {
          "indexed": true,
          "internalType": "address",
          "name": "beneficiary",
          "type": "address"
        },
        {
          "indexed": false,
          "internalType": "uint256",
          "name": "amount",
          "type": "uint256"
        }
      ],
      "name": "Action",
      "type": "event"
    },
    {
      "anonymous": false,
      "inputs": [
        {
          "indexed": true,
          "internalType": "bytes32",
          "name": "role",
          "type": "bytes32"
        },
        {
          "indexed": true,
          "internalType": "bytes32",
          "name": "previousAdminRole",
          "type": "bytes32"
        },
        {
          "indexed": true,
          "internalType": "bytes32",
          "name": "newAdminRole",
          "type": "bytes32"
        }
      ],
      "name": "RoleAdminChanged",
      "type": "event"
    },
    {
      "anonymous": false,
      "inputs": [
        {
          "indexed": true,
          "internalType": "bytes32",
          "name": "role",
          "type": "bytes32"
        },
        {
          "indexed": true,
          "internalType": "address",
          "name": "account",
          "type": "address"
        },
        {
          "indexed": true,
          "internalType": "address",
          "name": "sender",
          "type": "address"
        }
      ],
      "name": "RoleGranted",
      "type": "event"
    },
    {
      "anonymous": false,
      "inputs": [
        {
          "indexed": true,
          "internalType": "bytes32",
          "name": "role",
          "type": "bytes32"
        },
        {
          "indexed": true,
          "internalType": "address",
          "name": "account",
          "type": "address"
        },
        {
          "indexed": true,
          "internalType": "address",
          "name": "sender",
          "type": "address"
        }
      ],
      "name": "RoleRevoked",
      "type": "event"
    },
    {
      "inputs": [],
      "name": "DEFAULT_ADMIN_ROLE",
      "outputs": [
        {
          "internalType": "bytes32",
          "name": "",
          "type": "bytes32"
        }
      ],
      "stateMutability": "view",
      "type": "function",
      "constant": true
    },
    {
      "inputs": [],
      "name": "daoBalance",
      "outputs": [
        {
          "internalType": "uint256",
          "name": "",
          "type": "uint256"
        }
      ],
      "stateMutability": "view",
      "type": "function",
      "constant": true
    },
    {
      "inputs": [
        {
          "internalType": "bytes32",
          "name": "role",
          "type": "bytes32"
        }
      ],
      "name": "getRoleAdmin",
      "outputs": [
        {
          "internalType": "bytes32",
          "name": "",
          "type": "bytes32"
        }
      ],
      "stateMutability": "view",
      "type": "function",
      "constant": true
    },
    {
      "inputs": [
        {
          "internalType": "bytes32",
          "name": "role",
          "type": "bytes32"
        },
        {
          "internalType": "address",
          "name": "account",
          "type": "address"
        }
      ],
      "name": "grantRole",
      "outputs": [],
      "stateMutability": "nonpayable",
      "type": "function"
    },
    {
      "inputs": [
        {
          "internalType": "bytes32",
          "name": "role",
          "type": "bytes32"
        },
        {
          "internalType": "address",
          "name": "account",
          "type": "address"
        }
      ],
      "name": "hasRole",
      "outputs": [
        {
          "internalType": "bool",
          "name": "",
          "type": "bool"
        }
      ],
      "stateMutability": "view",
      "type": "function",
      "constant": true
    },
    {
      "inputs": [
        {
          "internalType": "bytes32",
          "name": "role",
          "type": "bytes32"
        },
        {
          "internalType": "address",
          "name": "account",
          "type": "address"
        }
      ],
      "name": "renounceRole",
      "outputs": [],
      "stateMutability": "nonpayable",
      "type": "function"
    },
    {
      "inputs": [
        {
          "internalType": "bytes32",
          "name": "role",
          "type": "bytes32"
        },
        {
          "internalType": "address",
          "name": "account",
          "type": "address"
        }
      ],
      "name": "revokeRole",
      "outputs": [],
      "stateMutability": "nonpayable",
      "type": "function"
    },
    {
      "inputs": [
        {
          "internalType": "bytes4",
          "name": "interfaceId",
          "type": "bytes4"
        }
      ],
      "name": "supportsInterface",
      "outputs": [
        {
          "internalType": "bool",
          "name": "",
          "type": "bool"
        }
      ],
      "stateMutability": "view",
      "type": "function",
      "constant": true
    },
    {
      "inputs": [
        {
          "internalType": "string",
          "name": "title",
          "type": "string"
        },
        {
          "internalType": "string",
          "name": "description",
          "type": "string"
        },
        {
          "internalType": "address",
          "name": "beneficiary",
          "type": "address"
        },
        {
          "internalType": "uint256",
          "name": "amount",
          "type": "uint256"
        }
      ],
      "name": "createProposal",
      "outputs": [],
      "stateMutability": "nonpayable",
      "type": "function"
    },
    {
      "inputs": [
        {
          "internalType": "uint256",
          "name": "proposalId",
          "type": "uint256"
        },
        {
          "internalType": "bool",
          "name": "choosen",
          "type": "bool"
        }
      ],
      "name": "performVote",
      "outputs": [],
      "stateMutability": "nonpayable",
      "type": "function"
    },
    {
      "inputs": [
        {
          "internalType": "uint256",
          "name": "proposalId",
          "type": "uint256"
        }
      ],
      "name": "payBeneficiary",
      "outputs": [],
      "stateMutability": "nonpayable",
      "type": "function"
    },
    {
      "inputs": [],
      "name": "contribute",
      "outputs": [],
      "stateMutability": "payable",
      "type": "function",
      "payable": true
    },
    {
      "inputs": [],
      "name": "getProposals",
      "outputs": [
        {
          "components": [
            {
              "internalType": "uint256",
              "name": "id",
              "type": "uint256"
            },
            {
              "internalType": "uint256",
              "name": "amount",
              "type": "uint256"
            },
            {
              "internalType": "uint256",
              "name": "duration",
              "type": "uint256"
            },
            {
              "internalType": "uint256",
              "name": "upvotes",
              "type": "uint256"
            },
            {
              "internalType": "uint256",
              "name": "downvotes",
              "type": "uint256"
            },
            {
              "internalType": "string",
              "name": "title",
              "type": "string"
            },
            {
              "internalType": "string",
              "name": "description",
              "type": "string"
            },
            {
              "internalType": "bool",
              "name": "passed",
              "type": "bool"
            },
            {
              "internalType": "bool",
              "name": "paid",
              "type": "bool"
            },
            {
              "internalType": "address payable",
              "name": "beneficiary",
              "type": "address"
            },
            {
              "internalType": "address",
              "name": "proposer",
              "type": "address"
            },
            {
              "internalType": "address",
              "name": "executor",
              "type": "address"
            }
          ],
          "internalType": "struct DominionDAO.ProposalStruct[]",
          "name": "props",
          "type": "tuple[]"
        }
      ],
      "stateMutability": "view",
      "type": "function",
      "constant": true
    },
    {
      "inputs": [
        {
          "internalType": "uint256",
          "name": "proposalId",
          "type": "uint256"
        }
      ],
      "name": "getProposal",
      "outputs": [
        {
          "components": [
            {
              "internalType": "uint256",
              "name": "id",
              "type": "uint256"
            },
            {
              "internalType": "uint256",
              "name": "amount",
              "type": "uint256"
            },
            {
              "internalType": "uint256",
              "name": "duration",
              "type": "uint256"
            },
            {
              "internalType": "uint256",
              "name": "upvotes",
              "type": "uint256"
            },
            {
              "internalType": "uint256",
              "name": "downvotes",
              "type": "uint256"
            },
            {
              "internalType": "string",
              "name": "title",
              "type": "string"
            },
            {
              "internalType": "string",
              "name": "description",
              "type": "string"
            },
            {
              "internalType": "bool",
              "name": "passed",
              "type": "bool"
            },
            {
              "internalType": "bool",
              "name": "paid",
              "type": "bool"
            },
            {
              "internalType": "address payable",
              "name": "beneficiary",
              "type": "address"
            },
            {
              "internalType": "address",
              "name": "proposer",
              "type": "address"
            },
            {
              "internalType": "address",
              "name": "executor",
              "type": "address"
            }
          ],
          "internalType": "struct DominionDAO.ProposalStruct",
          "name": "",
          "type": "tuple"
        }
      ],
      "stateMutability": "view",
      "type": "function",
      "constant": true
    },
    {
      "inputs": [
        {
          "internalType": "uint256",
          "name": "proposalId",
          "type": "uint256"
        }
      ],
      "name": "getVotesOf",
      "outputs": [
        {
          "components": [
            {
              "internalType": "address",
              "name": "voter",
              "type": "address"
            },
            {
              "internalType": "uint256",
              "name": "timestamp",
              "type": "uint256"
            },
            {
              "internalType": "bool",
              "name": "choosen",
              "type": "bool"
            }
          ],
          "internalType": "struct DominionDAO.VotedStruct[]",
          "name": "",
          "type": "tuple[]"
        }
      ],
      "stateMutability": "view",
      "type": "function",
      "constant": true
    },
    {
      "inputs": [],
      "name": "getStakeholderVotes",
      "outputs": [
        {
          "internalType": "uint256[]",
          "name": "",
          "type": "uint256[]"
        }
      ],
      "stateMutability": "view",
      "type": "function",
      "constant": true
    },
    {
      "inputs": [],
      "name": "getStakeholderBalance",
      "outputs": [
        {
          "internalType": "uint256",
          "name": "",
          "type": "uint256"
        }
      ],
      "stateMutability": "view",
      "type": "function",
      "constant": true
    },
    {
      "inputs": [],
      "name": "isStakeholder",
      "outputs": [
        {
          "internalType": "bool",
          "name": "",
          "type": "bool"
        }
      ],
      "stateMutability": "view",
      "type": "function",
      "constant": true
    },
    {
      "inputs": [],
      "name": "getContributorBalance",
      "outputs": [
        {
          "internalType": "uint256",
          "name": "",
          "type": "uint256"
        }
      ],
      "stateMutability": "view",
      "type": "function",
      "constant": true
    },
    {
      "inputs": [],
      "name": "isContributor",
      "outputs": [
        {
          "internalType": "bool",
          "name": "",
          "type": "bool"
        }
      ],
      "stateMutability": "view",
      "type": "function",
      "constant": true
    },
    {
      "inputs": [],
      "name": "getBalance",
      "outputs": [
        {
          "internalType": "uint256",
          "name": "",
          "type": "uint256"
        }
      ],
      "stateMutability": "view",
      "type": "function",
      "constant": true
    }
  ],
  "bytecode": "0x60806040527fa0bb1af1c90aa52ed052b92714ff0087008cc720049bf1af77cca2600b31e80c6002557ff4bb84e1768dd286358a736d195a0b228621173f655a73b89bf8b191ed0ba07d600355670de0b6b3a76400006004556078600560006101000a81548163ffffffff021916908363ffffffff16021790555034801561008657600080fd5b506001600081905550613a138061009e6000396000f3fe60806040526004361061012a5760003560e01c80637cdc2eb7116100ab578063bd9728161161006f578063bd972816146103f2578063c02146ac1461041d578063c7f758a814610448578063d547741f14610485578063d6cc8016146104ae578063d7bb99ba146104d95761012a565b80637cdc2eb71461030d57806391d1485414610336578063a217fddf14610373578063a22f1db71461039e578063b31f111c146103c95761012a565b806336568abe116100f257806336568abe146102265780633cdb48c21461024f57806362564c481461027a57806369a136dc146102a55780636a80d84d146102e25761012a565b806301ffc9a71461012f578063119c37c81461016c57806312065fe014610195578063248a9ca3146101c05780632f2ff15d146101fd575b600080fd5b34801561013b57600080fd5b50610156600480360381019061015191906124f8565b6104e3565b6040516101639190612540565b60405180910390f35b34801561017857600080fd5b50610193600480360381019061018e9190612591565b61055d565b005b3480156101a157600080fd5b506101aa610834565b6040516101b791906125cd565b60405180910390f35b3480156101cc57600080fd5b506101e760048036038101906101e2919061261e565b61087b565b6040516101f4919061265a565b60405180910390f35b34801561020957600080fd5b50610224600480360381019061021f91906126d3565b61089b565b005b34801561023257600080fd5b5061024d600480360381019061024891906126d3565b6108bc565b005b34801561025b57600080fd5b5061026461093f565b60405161027191906125cd565b60405180910390f35b34801561028657600080fd5b5061028f6109ef565b60405161029c91906129c7565b60405180910390f35b3480156102b157600080fd5b506102cc60048036038101906102c79190612591565b610d38565b6040516102d99190612ada565b60405180910390f35b3480156102ee57600080fd5b506102f7610e25565b60405161030491906125cd565b60405180910390f35b34801561031957600080fd5b50610334600480360381019061032f9190612c31565b610ef2565b005b34801561034257600080fd5b5061035d600480360381019061035891906126d3565b6110f4565b60405161036a9190612540565b60405180910390f35b34801561037f57600080fd5b5061038861115f565b604051610395919061265a565b60405180910390f35b3480156103aa57600080fd5b506103b3611166565b6040516103c09190612d7f565b60405180910390f35b3480156103d557600080fd5b506103f060048036038101906103eb9190612dcd565b611281565b005b3480156103fe57600080fd5b5061040761154d565b60405161041491906125cd565b60405180910390f35b34801561042957600080fd5b50610432611553565b60405161043f9190612540565b60405180910390f35b34801561045457600080fd5b5061046f600480360381019061046a9190612591565b61159c565b60405161047c9190612f18565b60405180910390f35b34801561049157600080fd5b506104ac60048036038101906104a791906126d3565b611858565b005b3480156104ba57600080fd5b506104c3611879565b6040516104d09190612540565b60405180910390f35b6104e16118c2565b005b60007f7965db0b000000000000000000000000000000000000000000000000000000007bffffffffffffffffffffffffffffffffffffffffffffffffffffffff1916827bffffffffffffffffffffffffffffffffffffffffffffffffffffffff19161480610556575061055582611b57565b5b9050919050565b6040518060400160405280601f81526020017f556e617574686f72697a65643a207374616b65686f6c64657273206f6e6c790081525061059f600354336110f4565b81906105e1576040517f08c379a00000000000000000000000000000000000000000000000000000000081526004016105d89190612f84565b60405180910390fd5b506105ea611bc1565b60006008600084815260200190815260200160002090508060010154600754101561064a576040517f08c379a000000000000000000000000000000000000000000000000000000000815260040161064190612ff2565b60405180910390fd5b8060070160019054906101000a900460ff161561069c576040517f08c379a00000000000000000000000000000000000000000000000000000000081526004016106939061305e565b60405180910390fd5b80600401548160030154116106e6576040517f08c379a00000000000000000000000000000000000000000000000000000000081526004016106dd906130ca565b60405180910390fd5b60018160070160016101000a81548160ff021916908315150217905550338160090160006101000a81548173ffffffffffffffffffffffffffffffffffffffff021916908373ffffffffffffffffffffffffffffffffffffffff16021790555080600101546007600082825461075c9190613119565b925050819055506107958160070160029054906101000a900473ffffffffffffffffffffffffffffffffffffffff168260010154611c11565b508060070160029054906101000a900473ffffffffffffffffffffffffffffffffffffffff1673ffffffffffffffffffffffffffffffffffffffff163373ffffffffffffffffffffffffffffffffffffffff167fa596782d699d74613fcbf59d33e720baabd313d6be9c95e2268f305430305eb7600354846001015460405161081f929190613199565b60405180910390a350610830611cc9565b5050565b6000600b60003373ffffffffffffffffffffffffffffffffffffffff1673ffffffffffffffffffffffffffffffffffffffff16815260200190815260200160002054905090565b600060016000838152602001908152602001600020600101549050919050565b6108a48261087b565b6108ad81611cd3565b6108b78383611ce7565b505050565b6108c4611dc7565b73ffffffffffffffffffffffffffffffffffffffff168173ffffffffffffffffffffffffffffffffffffffff1614610931576040517f08c379a000000000000000000000000000000000000000000000000000000000815260040161092890613247565b60405180910390fd5b61093b8282611dcf565b5050565b600060405180606001604052806021815260200161398f60219139610966600254336110f4565b81906109a8576040517f08c379a000000000000000000000000000000000000000000000000000000000815260040161099f9190612f84565b60405180910390fd5b50600b60003373ffffffffffffffffffffffffffffffffffffffff1673ffffffffffffffffffffffffffffffffffffffff1681526020019081526020016000205491505090565b606060065467ffffffffffffffff811115610a0d57610a0c612b06565b5b604051908082528060200260200182016040528015610a4657816020015b610a33612342565b815260200190600190039081610a2b5790505b50905060005b600654811015610d345760086000828152602001908152602001600020604051806101800160405290816000820154815260200160018201548152602001600282015481526020016003820154815260200160048201548152602001600582018054610ab790613296565b80601f0160208091040260200160405190810160405280929190818152602001828054610ae390613296565b8015610b305780601f10610b0557610100808354040283529160200191610b30565b820191906000526020600020905b815481529060010190602001808311610b1357829003601f168201915b50505050508152602001600682018054610b4990613296565b80601f0160208091040260200160405190810160405280929190818152602001828054610b7590613296565b8015610bc25780601f10610b9757610100808354040283529160200191610bc2565b820191906000526020600020905b815481529060010190602001808311610ba557829003601f168201915b505050505081526020016007820160009054906101000a900460ff161515151581526020016007820160019054906101000a900460ff161515151581526020016007820160029054906101000a900473ffffffffffffffffffffffffffffffffffffffff1673ffffffffffffffffffffffffffffffffffffffff1673ffffffffffffffffffffffffffffffffffffffff1681526020016008820160009054906101000a900473ffffffffffffffffffffffffffffffffffffffff1673ffffffffffffffffffffffffffffffffffffffff1673ffffffffffffffffffffffffffffffffffffffff1681526020016009820160009054906101000a900473ffffffffffffffffffffffffffffffffffffffff1673ffffffffffffffffffffffffffffffffffffffff1673ffffffffffffffffffffffffffffffffffffffff1681525050828281518110610d1657610d156132c8565b5b60200260200101819052508080610d2c906132f7565b915050610a4c565b5090565b6060600a6000838152602001908152602001600020805480602002602001604051908101604052809291908181526020016000905b82821015610e1a57838290600052602060002090600302016040518060600160405290816000820160009054906101000a900473ffffffffffffffffffffffffffffffffffffffff1673ffffffffffffffffffffffffffffffffffffffff1673ffffffffffffffffffffffffffffffffffffffff168152602001600182015481526020016002820160009054906101000a900460ff16151515158152505081526020019060010190610d6d565b505050509050919050565b60006040518060400160405280601f81526020017f556e617574686f72697a65643a207374616b65686f6c64657273206f6e6c7900815250610e69600354336110f4565b8190610eab576040517f08c379a0000000000000000000000000000000000000000000000000000000008152600401610ea29190612f84565b60405180910390fd5b50600c60003373ffffffffffffffffffffffffffffffffffffffff1673ffffffffffffffffffffffffffffffffffffffff1681526020019081526020016000205491505090565b6040518060600160405280602e81526020016139b0602e9139610f17600354336110f4565b8190610f59576040517f08c379a0000000000000000000000000000000000000000000000000000000008152600401610f509190612f84565b60405180910390fd5b50600060066000815480929190610f6f906132f7565b9190505590506000600860008381526020019081526020016000209050818160000181905550338160080160006101000a81548173ffffffffffffffffffffffffffffffffffffffff021916908373ffffffffffffffffffffffffffffffffffffffff16021790555086816005019080519060200190610ff09291906123e9565b50858160060190805190602001906110099291906123e9565b50848160070160026101000a81548173ffffffffffffffffffffffffffffffffffffffff021916908373ffffffffffffffffffffffffffffffffffffffff160217905550838160010181905550600560009054906101000a900463ffffffff1663ffffffff164261107a9190613340565b81600201819055508473ffffffffffffffffffffffffffffffffffffffff163373ffffffffffffffffffffffffffffffffffffffff167fa596782d699d74613fcbf59d33e720baabd313d6be9c95e2268f305430305eb7600254876040516110e39291906133e2565b60405180910390a350505050505050565b60006001600084815260200190815260200160002060000160008373ffffffffffffffffffffffffffffffffffffffff1673ffffffffffffffffffffffffffffffffffffffff16815260200190815260200160002060009054906101000a900460ff16905092915050565b6000801b81565b60606040518060400160405280601f81526020017f556e617574686f72697a65643a207374616b65686f6c64657273206f6e6c79008152506111aa600354336110f4565b81906111ec576040517f08c379a00000000000000000000000000000000000000000000000000000000081526004016111e39190612f84565b60405180910390fd5b50600960003373ffffffffffffffffffffffffffffffffffffffff1673ffffffffffffffffffffffffffffffffffffffff16815260200190815260200160002080548060200260200160405190810160405280929190818152602001828054801561127657602002820191906000526020600020905b815481526020019060010190808311611262575b505050505091505090565b6040518060400160405280601f81526020017f556e617574686f72697a65643a207374616b65686f6c64657273206f6e6c79008152506112c3600354336110f4565b8190611305576040517f08c379a00000000000000000000000000000000000000000000000000000000081526004016112fc9190612f84565b60405180910390fd5b50600060086000858152602001908152602001600020905061132681611eb1565b821561134b57806003016000815480929190611341906132f7565b9190505550611366565b806004016000815480929190611360906132f7565b91905055505b600960003373ffffffffffffffffffffffffffffffffffffffff1673ffffffffffffffffffffffffffffffffffffffff16815260200190815260200160002081600001549080600181540180825580915050600190039060005260206000200160009091909190915055600a60008260000154815260200190815260200160002060405180606001604052803373ffffffffffffffffffffffffffffffffffffffff168152602001428152602001851515815250908060018154018082558091505060019003906000526020600020906003020160009091909190915060008201518160000160006101000a81548173ffffffffffffffffffffffffffffffffffffffff021916908373ffffffffffffffffffffffffffffffffffffffff1602179055506020820151816001015560408201518160020160006101000a81548160ff02191690831515021790555050508060070160029054906101000a900473ffffffffffffffffffffffffffffffffffffffff1673ffffffffffffffffffffffffffffffffffffffff163373ffffffffffffffffffffffffffffffffffffffff167fa596782d699d74613fcbf59d33e720baabd313d6be9c95e2268f305430305eb7600354846001015460405161153f92919061346a565b60405180910390a350505050565b60075481565b600080600c60003373ffffffffffffffffffffffffffffffffffffffff1673ffffffffffffffffffffffffffffffffffffffff1681526020019081526020016000205411905090565b6115a4612342565b6008600083815260200190815260200160002060405180610180016040529081600082015481526020016001820154815260200160028201548152602001600382015481526020016004820154815260200160058201805461160590613296565b80601f016020809104026020016040519081016040528092919081815260200182805461163190613296565b801561167e5780601f106116535761010080835404028352916020019161167e565b820191906000526020600020905b81548152906001019060200180831161166157829003601f168201915b5050505050815260200160068201805461169790613296565b80601f01602080910402602001604051908101604052809291908181526020018280546116c390613296565b80156117105780601f106116e557610100808354040283529160200191611710565b820191906000526020600020905b8154815290600101906020018083116116f357829003601f168201915b505050505081526020016007820160009054906101000a900460ff161515151581526020016007820160019054906101000a900460ff161515151581526020016007820160029054906101000a900473ffffffffffffffffffffffffffffffffffffffff1673ffffffffffffffffffffffffffffffffffffffff1673ffffffffffffffffffffffffffffffffffffffff1681526020016008820160009054906101000a900473ffffffffffffffffffffffffffffffffffffffff1673ffffffffffffffffffffffffffffffffffffffff1673ffffffffffffffffffffffffffffffffffffffff1681526020016009820160009054906101000a900473ffffffffffffffffffffffffffffffffffffffff1673ffffffffffffffffffffffffffffffffffffffff1673ffffffffffffffffffffffffffffffffffffffff16815250509050919050565b6118618261087b565b61186a81611cd3565b6118748383611dcf565b505050565b600080600b60003373ffffffffffffffffffffffffffffffffffffffff1673ffffffffffffffffffffffffffffffffffffffff1681526020019081526020016000205411905090565b60003411611905576040517f08c379a00000000000000000000000000000000000000000000000000000000081526004016118fc906134f2565b60405180910390fd5b611911600354336110f4565b611a2657600034600b60003373ffffffffffffffffffffffffffffffffffffffff1673ffffffffffffffffffffffffffffffffffffffff168152602001908152602001600020546119629190613340565b905060045481106119be5780600c60003373ffffffffffffffffffffffffffffffffffffffff1673ffffffffffffffffffffffffffffffffffffffff168152602001908152602001600020819055506119bd60035433612046565b5b34600b60003373ffffffffffffffffffffffffffffffffffffffff1673ffffffffffffffffffffffffffffffffffffffff1681526020019081526020016000206000828254611a0d9190613340565b92505081905550611a2060025433612046565b50611ad3565b34600b60003373ffffffffffffffffffffffffffffffffffffffff1673ffffffffffffffffffffffffffffffffffffffff1681526020019081526020016000206000828254611a759190613340565b9250508190555034600c60003373ffffffffffffffffffffffffffffffffffffffff1673ffffffffffffffffffffffffffffffffffffffff1681526020019081526020016000206000828254611acb9190613340565b925050819055505b3460076000828254611ae59190613340565b925050819055503073ffffffffffffffffffffffffffffffffffffffff163373ffffffffffffffffffffffffffffffffffffffff167fa596782d699d74613fcbf59d33e720baabd313d6be9c95e2268f305430305eb760035434604051611b4d92919061355e565b60405180910390a3565b60007f01ffc9a7000000000000000000000000000000000000000000000000000000007bffffffffffffffffffffffffffffffffffffffffffffffffffffffff1916827bffffffffffffffffffffffffffffffffffffffffffffffffffffffff1916149050919050565b60026000541415611c07576040517f08c379a0000000000000000000000000000000000000000000000000000000008152600401611bfe906135e6565b60405180910390fd5b6002600081905550565b6000808373ffffffffffffffffffffffffffffffffffffffff1683604051611c3890613637565b60006040518083038185875af1925050503d8060008114611c75576040519150601f19603f3d011682016040523d82523d6000602084013e611c7a565b606091505b5050905080611cbe576040517f08c379a0000000000000000000000000000000000000000000000000000000008152600401611cb590613698565b60405180910390fd5b600191505092915050565b6001600081905550565b611ce481611cdf611dc7565b612054565b50565b611cf182826110f4565b611dc357600180600084815260200190815260200160002060000160008373ffffffffffffffffffffffffffffffffffffffff1673ffffffffffffffffffffffffffffffffffffffff16815260200190815260200160002060006101000a81548160ff021916908315150217905550611d68611dc7565b73ffffffffffffffffffffffffffffffffffffffff168173ffffffffffffffffffffffffffffffffffffffff16837f2f8788117e7eff1d82e926ec794901d17c78024a50270940304540a733656f0d60405160405180910390a45b5050565b600033905090565b611dd982826110f4565b15611ead5760006001600084815260200190815260200160002060000160008373ffffffffffffffffffffffffffffffffffffffff1673ffffffffffffffffffffffffffffffffffffffff16815260200190815260200160002060006101000a81548160ff021916908315150217905550611e52611dc7565b73ffffffffffffffffffffffffffffffffffffffff168173ffffffffffffffffffffffffffffffffffffffff16837ff6391f5c32d9c69d2a47ea670b442974b53935d1edc7fd64eb21e047a839171b60405160405180910390a45b5050565b8060070160009054906101000a900460ff1680611ed2575042816002015411155b15611f2f5760018160070160006101000a81548160ff0219169083151502179055506040517f08c379a0000000000000000000000000000000000000000000000000000000008152600401611f2690613704565b60405180910390fd5b6000600960003373ffffffffffffffffffffffffffffffffffffffff1673ffffffffffffffffffffffffffffffffffffffff168152602001908152602001600020805480602002602001604051908101604052809291908181526020018280548015611fba57602002820191906000526020600020905b815481526020019060010190808311611fa6575b5050505050905060005b815181101561204157818181518110611fe057611fdf6132c8565b5b60200260200101518360000154141561202e576040517f08c379a000000000000000000000000000000000000000000000000000000000815260040161202590613770565b60405180910390fd5b8080612039906132f7565b915050611fc4565b505050565b6120508282611ce7565b5050565b61205e82826110f4565b6120d55761206b816120d9565b6120798360001c6020612106565b60405160200161208a929190613864565b6040516020818303038152906040526040517f08c379a00000000000000000000000000000000000000000000000000000000081526004016120cc9190612f84565b60405180910390fd5b5050565b60606120ff8273ffffffffffffffffffffffffffffffffffffffff16601460ff16612106565b9050919050565b606060006002836002612119919061389e565b6121239190613340565b67ffffffffffffffff81111561213c5761213b612b06565b5b6040519080825280601f01601f19166020018201604052801561216e5781602001600182028036833780820191505090505b5090507f3000000000000000000000000000000000000000000000000000000000000000816000815181106121a6576121a56132c8565b5b60200101907effffffffffffffffffffffffffffffffffffffffffffffffffffffffffffff1916908160001a9053507f78000000000000000000000000000000000000000000000000000000000000008160018151811061220a576122096132c8565b5b60200101907effffffffffffffffffffffffffffffffffffffffffffffffffffffffffffff1916908160001a9053506000600184600261224a919061389e565b6122549190613340565b90505b60018111156122f4577f3031323334353637383961626364656600000000000000000000000000000000600f861660108110612296576122956132c8565b5b1a60f81b8282815181106122ad576122ac6132c8565b5b60200101907effffffffffffffffffffffffffffffffffffffffffffffffffffffffffffff1916908160001a905350600485901c9450806122ed906138f8565b9050612257565b5060008414612338576040517f08c379a000000000000000000000000000000000000000000000000000000000815260040161232f9061396e565b60405180910390fd5b8091505092915050565b60405180610180016040528060008152602001600081526020016000815260200160008152602001600081526020016060815260200160608152602001600015158152602001600015158152602001600073ffffffffffffffffffffffffffffffffffffffff168152602001600073ffffffffffffffffffffffffffffffffffffffff168152602001600073ffffffffffffffffffffffffffffffffffffffff1681525090565b8280546123f590613296565b90600052602060002090601f016020900481019282612417576000855561245e565b82601f1061243057805160ff191683800117855561245e565b8280016001018555821561245e579182015b8281111561245d578251825591602001919060010190612442565b5b50905061246b919061246f565b5090565b5b80821115612488576000816000905550600101612470565b5090565b6000604051905090565b600080fd5b600080fd5b60007fffffffff0000000000000000000000000000000000000000000000000000000082169050919050565b6124d5816124a0565b81146124e057600080fd5b50565b6000813590506124f2816124cc565b92915050565b60006020828403121561250e5761250d612496565b5b600061251c848285016124e3565b91505092915050565b60008115159050919050565b61253a81612525565b82525050565b60006020820190506125556000830184612531565b92915050565b6000819050919050565b61256e8161255b565b811461257957600080fd5b50565b60008135905061258b81612565565b92915050565b6000602082840312156125a7576125a6612496565b5b60006125b58482850161257c565b91505092915050565b6125c78161255b565b82525050565b60006020820190506125e260008301846125be565b92915050565b6000819050919050565b6125fb816125e8565b811461260657600080fd5b50565b600081359050612618816125f2565b92915050565b60006020828403121561263457612633612496565b5b600061264284828501612609565b91505092915050565b612654816125e8565b82525050565b600060208201905061266f600083018461264b565b92915050565b600073ffffffffffffffffffffffffffffffffffffffff82169050919050565b60006126a082612675565b9050919050565b6126b081612695565b81146126bb57600080fd5b50565b6000813590506126cd816126a7565b92915050565b600080604083850312156126ea576126e9612496565b5b60006126f885828601612609565b9250506020612709858286016126be565b9150509250929050565b600081519050919050565b600082825260208201905092915050565b6000819050602082019050919050565b6127488161255b565b82525050565b600081519050919050565b600082825260208201905092915050565b60005b8381101561278857808201518184015260208101905061276d565b83811115612797576000848401525b50505050565b6000601f19601f8301169050919050565b60006127b98261274e565b6127c38185612759565b93506127d381856020860161276a565b6127dc8161279d565b840191505092915050565b6127f081612525565b82525050565b600061280182612675565b9050919050565b612811816127f6565b82525050565b61282081612695565b82525050565b60006101808301600083015161283f600086018261273f565b506020830151612852602086018261273f565b506040830151612865604086018261273f565b506060830151612878606086018261273f565b50608083015161288b608086018261273f565b5060a083015184820360a08601526128a382826127ae565b91505060c083015184820360c08601526128bd82826127ae565b91505060e08301516128d260e08601826127e7565b506101008301516128e76101008601826127e7565b506101208301516128fc610120860182612808565b50610140830151612911610140860182612817565b50610160830151612926610160860182612817565b508091505092915050565b600061293d8383612826565b905092915050565b6000602082019050919050565b600061295d82612713565b612967818561271e565b9350836020820285016129798561272f565b8060005b858110156129b557848403895281516129968582612931565b94506129a183612945565b925060208a0199505060018101905061297d565b50829750879550505050505092915050565b600060208201905081810360008301526129e18184612952565b905092915050565b600081519050919050565b600082825260208201905092915050565b6000819050602082019050919050565b606082016000820151612a2b6000850182612817565b506020820151612a3e602085018261273f565b506040820151612a5160408501826127e7565b50505050565b6000612a638383612a15565b60608301905092915050565b6000602082019050919050565b6000612a87826129e9565b612a9181856129f4565b9350612a9c83612a05565b8060005b83811015612acd578151612ab48882612a57565b9750612abf83612a6f565b925050600181019050612aa0565b5085935050505092915050565b60006020820190508181036000830152612af48184612a7c565b905092915050565b600080fd5b600080fd5b7f4e487b7100000000000000000000000000000000000000000000000000000000600052604160045260246000fd5b612b3e8261279d565b810181811067ffffffffffffffff82111715612b5d57612b5c612b06565b5b80604052505050565b6000612b7061248c565b9050612b7c8282612b35565b919050565b600067ffffffffffffffff821115612b9c57612b9b612b06565b5b612ba58261279d565b9050602081019050919050565b82818337600083830152505050565b6000612bd4612bcf84612b81565b612b66565b905082815260208101848484011115612bf057612bef612b01565b5b612bfb848285612bb2565b509392505050565b600082601f830112612c1857612c17612afc565b5b8135612c28848260208601612bc1565b91505092915050565b60008060008060808587031215612c4b57612c4a612496565b5b600085013567ffffffffffffffff811115612c6957612c6861249b565b5b612c7587828801612c03565b945050602085013567ffffffffffffffff811115612c9657612c9561249b565b5b612ca287828801612c03565b9350506040612cb3878288016126be565b9250506060612cc48782880161257c565b91505092959194509250565b600081519050919050565b600082825260208201905092915050565b6000819050602082019050919050565b6000612d08838361273f565b60208301905092915050565b6000602082019050919050565b6000612d2c82612cd0565b612d368185612cdb565b9350612d4183612cec565b8060005b83811015612d72578151612d598882612cfc565b9750612d6483612d14565b925050600181019050612d45565b5085935050505092915050565b60006020820190508181036000830152612d998184612d21565b905092915050565b612daa81612525565b8114612db557600080fd5b50565b600081359050612dc781612da1565b92915050565b60008060408385031215612de457612de3612496565b5b6000612df28582860161257c565b9250506020612e0385828601612db8565b9150509250929050565b600061018083016000830151612e26600086018261273f565b506020830151612e39602086018261273f565b506040830151612e4c604086018261273f565b506060830151612e5f606086018261273f565b506080830151612e72608086018261273f565b5060a083015184820360a0860152612e8a82826127ae565b91505060c083015184820360c0860152612ea482826127ae565b91505060e0830151612eb960e08601826127e7565b50610100830151612ece6101008601826127e7565b50610120830151612ee3610120860182612808565b50610140830151612ef8610140860182612817565b50610160830151612f0d610160860182612817565b508091505092915050565b60006020820190508181036000830152612f328184612e0d565b905092915050565b600082825260208201905092915050565b6000612f568261274e565b612f608185612f3a565b9350612f7081856020860161276a565b612f798161279d565b840191505092915050565b60006020820190508181036000830152612f9e8184612f4b565b905092915050565b7f696e73756666696369656e742062616c616e6365000000000000000000000000600082015250565b6000612fdc601483612f3a565b9150612fe782612fa6565b602082019050919050565b6000602082019050818103600083015261300b81612fcf565b9050919050565b7f7061796d656e742073656e74206265666f726500000000000000000000000000600082015250565b6000613048601383612f3a565b915061305382613012565b602082019050919050565b600060208201905081810360008301526130778161303b565b9050919050565b7f696e73756666696369656e7420766f7465730000000000000000000000000000600082015250565b60006130b4601283612f3a565b91506130bf8261307e565b602082019050919050565b600060208201905081810360008301526130e3816130a7565b9050919050565b7f4e487b7100000000000000000000000000000000000000000000000000000000600052601160045260246000fd5b60006131248261255b565b915061312f8361255b565b925082821015613142576131416130ea565b5b828203905092915050565b7f5041594d454e54205452414e5346455245440000000000000000000000000000600082015250565b6000613183601283612f3a565b915061318e8261314d565b602082019050919050565b60006060820190506131ae600083018561264b565b81810360208301526131bf81613176565b90506131ce60408301846125be565b9392505050565b7f416363657373436f6e74726f6c3a2063616e206f6e6c792072656e6f756e636560008201527f20726f6c657320666f722073656c660000000000000000000000000000000000602082015250565b6000613231602f83612f3a565b915061323c826131d5565b604082019050919050565b6000602082019050818103600083015261326081613224565b9050919050565b7f4e487b7100000000000000000000000000000000000000000000000000000000600052602260045260246000fd5b600060028204905060018216806132ae57607f821691505b602082108114156132c2576132c1613267565b5b50919050565b7f4e487b7100000000000000000000000000000000000000000000000000000000600052603260045260246000fd5b60006133028261255b565b91507fffffffffffffffffffffffffffffffffffffffffffffffffffffffffffffffff821415613335576133346130ea565b5b600182019050919050565b600061334b8261255b565b91506133568361255b565b9250827fffffffffffffffffffffffffffffffffffffffffffffffffffffffffffffffff0382111561338b5761338a6130ea565b5b828201905092915050565b7f50524f504f53414c205241495345440000000000000000000000000000000000600082015250565b60006133cc600f83612f3a565b91506133d782613396565b602082019050919050565b60006060820190506133f7600083018561264b565b8181036020830152613408816133bf565b905061341760408301846125be565b9392505050565b7f50524f504f53414c20564f544500000000000000000000000000000000000000600082015250565b6000613454600d83612f3a565b915061345f8261341e565b602082019050919050565b600060608201905061347f600083018561264b565b818103602083015261349081613447565b905061349f60408301846125be565b9392505050565b7f436f6e747269627574696e67207a65726f206973206e6f7420616c6c6f776564600082015250565b60006134dc602083612f3a565b91506134e7826134a6565b602082019050919050565b6000602082019050818103600083015261350b816134cf565b9050919050565b7f434f4e545249425554494f4e2052454345495645440000000000000000000000600082015250565b6000613548601583612f3a565b915061355382613512565b602082019050919050565b6000606082019050613573600083018561264b565b81810360208301526135848161353b565b905061359360408301846125be565b9392505050565b7f5265656e7472616e637947756172643a207265656e7472616e742063616c6c00600082015250565b60006135d0601f83612f3a565b91506135db8261359a565b602082019050919050565b600060208201905081810360008301526135ff816135c3565b9050919050565b600081905092915050565b50565b6000613621600083613606565b915061362c82613611565b600082019050919050565b600061364282613614565b9150819050919050565b7f5061796d656e74204661696c6564000000000000000000000000000000000000600082015250565b6000613682600e83612f3a565b915061368d8261364c565b602082019050919050565b600060208201905081810360008301526136b181613675565b9050919050565b7f50726f706f73616c206475726174696f6e206578706972656400000000000000600082015250565b60006136ee601983612f3a565b91506136f9826136b8565b602082019050919050565b6000602082019050818103600083015261371d816136e1565b9050919050565b7f446f75626c6520766f74696e67206e6f7420616c6c6f77656400000000000000600082015250565b600061375a601983612f3a565b915061376582613724565b602082019050919050565b600060208201905081810360008301526137898161374d565b9050919050565b600081905092915050565b7f416363657373436f6e74726f6c3a206163636f756e7420000000000000000000600082015250565b60006137d1601783613790565b91506137dc8261379b565b601782019050919050565b60006137f28261274e565b6137fc8185613790565b935061380c81856020860161276a565b80840191505092915050565b7f206973206d697373696e6720726f6c6520000000000000000000000000000000600082015250565b600061384e601183613790565b915061385982613818565b601182019050919050565b600061386f826137c4565b915061387b82856137e7565b915061388682613841565b915061389282846137e7565b91508190509392505050565b60006138a98261255b565b91506138b48361255b565b9250817fffffffffffffffffffffffffffffffffffffffffffffffffffffffffffffffff04831182151516156138ed576138ec6130ea565b5b828202905092915050565b60006139038261255b565b91506000821415613917576139166130ea565b5b600182039050919050565b7f537472696e67733a20686578206c656e67746820696e73756666696369656e74600082015250565b6000613958602083612f3a565b915061396382613922565b602082019050919050565b600060208201905081810360008301526139878161394b565b905091905056fe44656e6965643a2075736572206973206e6f74206120636f6e7472696275746f7250726f706f73616c206372656174696f6e20616c6c6f77656420666f72207374616b65686f6c646572206f6e6c79a2646970667358221220817fd6a22d54d7b7b9223fb2537e943188dfb63cd05cd9477520158f93b850eb64736f6c634300080b0033",
  "immutableReferences": {},
  "source": "// SPDX-License-Identifier: MIT\npragma solidity >=0.5.0 <0.9.0;\n\nimport \"@openzeppelin/contracts/access/AccessControl.sol\";\n// access control lets us know more about the user that whether the user is a stakeholder or not by getting its address\nimport \"@openzeppelin/contracts/security/ReentrancyGuard.sol\";\n// helps in security purpose => don't let recursively call a function\n\ncontract DominionDAO is ReentrancyGuard,AccessControl{\n  bytes32 private CONTRIBUTOR_ROLE = keccak256(\"CONTRIBUTOR\");\n  bytes32 private STAKEHOLDER_ROLE = keccak256(\"STAKEHOLDER\");\n  uint256  MIN_STAKEHOLDER_CONTRIBUTION = 1 ether;\n  uint32  MIN_VOTE_DURATION = 2 minutes;\n  uint256 totalProposals;\n  uint256 public daoBalance;\n\n  mapping(uint256 => ProposalStruct) private raisedProposals;\n  mapping(address => uint256[]) private stakeholderVotes;\n  mapping(uint256 => VotedStruct[]) private votedOn;\n  mapping(address => uint256) private contributors;\n  mapping(address => uint256) private stakeholders;\n\n  struct ProposalStruct{\n    uint256 id;\n    uint256 amount;\n    uint256 duration;\n    uint256 upvotes;\n    uint256 downvotes;\n    string title;\n    string description;\n    bool passed;\n    bool paid;\n    address payable beneficiary;\n    address proposer;\n    address executor;\n  }\n\n  struct VotedStruct {\n    address voter;\n    uint256 timestamp;\n    bool choosen;\n  }\n\n  event Action(\n    address indexed initiator,\n    bytes32 role,\n    string message,\n    address indexed beneficiary,\n    uint256 amount\n  );\n\n  modifier stakeholderOnly(string memory message){\n    require(hasRole(STAKEHOLDER_ROLE,msg.sender),message);\n    _;\n  }\n\n  modifier contributorOnly(string memory message){\n    require(hasRole(CONTRIBUTOR_ROLE,msg.sender),message);  // hasRole is coming from accessControl\n    _;\n  }\n\n  function createProposal(\n    string memory title,\n    string memory description,\n    address beneficiary,\n    uint256 amount\n  ) external stakeholderOnly(\"Proposal creation allowed for stakeholder only\") {\n    uint256 proposalId = totalProposals++;\n    ProposalStruct storage proposal = raisedProposals[proposalId];\n\n    proposal.id = proposalId;\n    proposal.proposer = payable(msg.sender);\n    proposal.title = title;\n    proposal.description = description;\n    proposal.beneficiary = payable(beneficiary);\n    proposal.amount = amount;\n    proposal.duration = block.timestamp + MIN_VOTE_DURATION;\n\n    emit Action(\n      msg.sender,\n      CONTRIBUTOR_ROLE,\n      \"PROPOSAL RAISED\",\n      beneficiary,\n      amount\n    );\n  }\n\n  function performVote(uint256 proposalId, bool choosen) public stakeholderOnly(\"Unauthorized: stakeholders only\"){\n    ProposalStruct storage proposal = raisedProposals[proposalId];\n    handleVoting(proposal);\n    if(choosen) proposal.upvotes++;\n    else proposal.downvotes++;\n\n    stakeholderVotes[msg.sender].push(proposal.id);\n\n    votedOn[proposal.id].push(\n      VotedStruct(\n        msg.sender,\n        block.timestamp,\n        choosen\n      )\n    );\n    emit Action(\n      msg.sender,\n      STAKEHOLDER_ROLE,\n      \"PROPOSAL VOTE\",\n      proposal.beneficiary,\n      proposal.amount\n    );\n  }\n\n  function handleVoting(ProposalStruct storage proposal) private {\n    if(proposal.passed || proposal.duration <= block.timestamp){\n      proposal.passed = true;\n      revert(\"Proposal duration expired\");\n    }\n    uint256[] memory tempVotes = stakeholderVotes[msg.sender];\n    for(uint256 votes = 0; votes < tempVotes.length; votes++){\n      if(proposal.id == tempVotes[votes]){\n      revert(\"Double voting not allowed\");\n      }\n    }\n  }\n\n  function payBeneficiary(uint256 proposalId) public stakeholderOnly(\"Unauthorized: stakeholders only\") nonReentrant(){\n    ProposalStruct storage proposal = raisedProposals[proposalId];\n    require(daoBalance >= proposal.amount,\"insufficient balance\");\n    if(proposal.paid) revert(\"payment sent before\");\n    if(proposal.upvotes <= proposal.downvotes) revert(\"insufficient votes\");\n\n    proposal.paid = true;\n    proposal.executor = msg.sender;\n    daoBalance -= proposal.amount;\n\n    payTo(proposal.beneficiary,proposal.amount);\n\n    emit Action(msg.sender,STAKEHOLDER_ROLE,\"PAYMENT TRANSFERED\",proposal.beneficiary,proposal.amount);\n  }\n\n  function payTo(address to,uint256 amount) internal returns(bool){\n    (bool success, ) = payable(to).call{value:amount}(\"\");\n    require(success,\"Payment Failed\");\n    return true;\n  }\n \n  function contribute() payable public {\n    require(msg.value> 0 ether, \"Contributing zero is not allowed\");\n    if(!hasRole(STAKEHOLDER_ROLE, msg.sender)){\n      uint256 totalContribution = contributors[msg.sender] + msg.value;\n\n      if(totalContribution >= MIN_STAKEHOLDER_CONTRIBUTION){\n        stakeholders[msg.sender] = totalContribution;\n        _setupRole(STAKEHOLDER_ROLE,msg.sender);\n      }\n        contributors[msg.sender] += msg.value;\n        _setupRole(CONTRIBUTOR_ROLE,msg.sender);\n    }else{\n        contributors[msg.sender] += msg.value;\n        stakeholders[msg.sender] += msg.value;\n    }\n\n    daoBalance += msg.value;\n    emit Action(\n      msg.sender,\n      STAKEHOLDER_ROLE,\n      \"CONTRIBUTION RECEIVED\",\n      address(this),\n      msg.value\n    );\n\n  }\n\n  function getProposals() public view returns(ProposalStruct[] memory props){\n    props = new ProposalStruct[](totalProposals);\n    for(uint256 i = 0; i< totalProposals; i++){\n      props[i] = raisedProposals[i];\n    }\n  }\n\n  function getProposal(uint256 proposalId) public view returns (ProposalStruct memory) {\n    return raisedProposals[proposalId];\n  } \n\n  function getVotesOf(uint256 proposalId) public view returns(VotedStruct[] memory){\n    return votedOn[proposalId];\n  }\n  \n  function getStakeholderVotes() public view stakeholderOnly(\"Unauthorized: stakeholders only\") returns(uint256[] memory){\n    return stakeholderVotes[msg.sender];\n  }\n\n  function getStakeholderBalance() public view stakeholderOnly(\"Unauthorized: stakeholders only\") returns(uint256){\n    return stakeholders[msg.sender];\n  }\n\n  function isStakeholder() public view returns (bool){\n    return stakeholders[msg.sender]>0;\n  }\n\n  function getContributorBalance() public view contributorOnly(\"Denied: user is not a contributor\") returns(uint256){\n    return contributors[msg.sender];\n  }\n\n  function isContributor() public view returns (bool){\n    return contributors[msg.sender]>0;\n  }\n\n  function getBalance() public view returns(uint256){\n    return contributors[msg.sender];\n  }\n\n  \n\n}\n",
  "sourcePath": "D:\\Blockchain\\Projects\\DAO\\src\\contracts\\DominionDAO.sol",
  "compiler": {
    "name": "solc",
    "version": "0.8.11+commit.d7f03943.Emscripten.clang"
  },
  "schemaVersion": "3.4.11",
  "updatedAt": "2023-02-06T03:32:07.601Z",
  "networkType": "ethereum",
  "devdoc": {
    "kind": "dev",
    "methods": {
      "getRoleAdmin(bytes32)": {
        "details": "Returns the admin role that controls `role`. See {grantRole} and {revokeRole}. To change a role's admin, use {_setRoleAdmin}."
      },
      "grantRole(bytes32,address)": {
        "details": "Grants `role` to `account`. If `account` had not been already granted `role`, emits a {RoleGranted} event. Requirements: - the caller must have ``role``'s admin role. May emit a {RoleGranted} event."
      },
      "hasRole(bytes32,address)": {
        "details": "Returns `true` if `account` has been granted `role`."
      },
      "renounceRole(bytes32,address)": {
        "details": "Revokes `role` from the calling account. Roles are often managed via {grantRole} and {revokeRole}: this function's purpose is to provide a mechanism for accounts to lose their privileges if they are compromised (such as when a trusted device is misplaced). If the calling account had been revoked `role`, emits a {RoleRevoked} event. Requirements: - the caller must be `account`. May emit a {RoleRevoked} event."
      },
      "revokeRole(bytes32,address)": {
        "details": "Revokes `role` from `account`. If `account` had been granted `role`, emits a {RoleRevoked} event. Requirements: - the caller must have ``role``'s admin role. May emit a {RoleRevoked} event."
      },
      "supportsInterface(bytes4)": {
        "details": "See {IERC165-supportsInterface}."
      }
    },
    "version": 1
  },
  "userdoc": {
    "kind": "user",
    "methods": {},
    "version": 1
  }
}